{
  "address": "0x9A9f2CCfdE556A7E9Ff0848998Aa4a0CFD8863AE",
  "abi": [
    {
      "inputs": [
        {
          "internalType": "contract ENS",
          "name": "_ens",
          "type": "address"
        },
        {
          "internalType": "contract INameWrapper",
          "name": "wrapperAddress",
          "type": "address"
        },
        {
          "internalType": "address",
          "name": "_trustedETHController",
          "type": "address"
        },
        {
          "internalType": "address",
          "name": "_trustedReverseRegistrar",
          "type": "address"
        }
      ],
      "stateMutability": "nonpayable",
      "type": "constructor"
    },
    {
      "anonymous": false,
      "inputs": [
        {
          "indexed": true,
          "internalType": "bytes32",
          "name": "node",
          "type": "bytes32"
        },
        {
          "indexed": true,
          "internalType": "uint256",
          "name": "contentType",
          "type": "uint256"
        }
      ],
      "name": "ABIChanged",
      "type": "event"
    },
    {
      "anonymous": false,
      "inputs": [
        {
          "indexed": true,
          "internalType": "bytes32",
          "name": "node",
          "type": "bytes32"
        },
        {
          "indexed": false,
          "internalType": "address",
          "name": "a",
          "type": "address"
        }
      ],
      "name": "AddrChanged",
      "type": "event"
    },
    {
      "anonymous": false,
      "inputs": [
        {
          "indexed": true,
          "internalType": "bytes32",
          "name": "node",
          "type": "bytes32"
        },
        {
          "indexed": false,
          "internalType": "uint256",
          "name": "coinType",
          "type": "uint256"
        },
        {
          "indexed": false,
          "internalType": "bytes",
          "name": "newAddress",
          "type": "bytes"
        }
      ],
      "name": "AddressChanged",
      "type": "event"
    },
    {
      "anonymous": false,
      "inputs": [
        {
          "indexed": true,
          "internalType": "address",
          "name": "owner",
          "type": "address"
        },
        {
          "indexed": true,
          "internalType": "address",
          "name": "operator",
          "type": "address"
        },
        {
          "indexed": false,
          "internalType": "bool",
          "name": "approved",
          "type": "bool"
        }
      ],
      "name": "ApprovalForAll",
      "type": "event"
    },
    {
      "anonymous": false,
      "inputs": [
        {
          "indexed": false,
          "internalType": "address",
          "name": "owner",
          "type": "address"
        },
        {
          "indexed": true,
          "internalType": "bytes32",
          "name": "node",
          "type": "bytes32"
        },
        {
          "indexed": true,
          "internalType": "address",
          "name": "delegate",
          "type": "address"
        },
        {
          "indexed": true,
          "internalType": "bool",
          "name": "approved",
          "type": "bool"
        }
      ],
      "name": "Approved",
      "type": "event"
    },
    {
      "anonymous": false,
      "inputs": [
        {
          "indexed": true,
          "internalType": "bytes32",
          "name": "node",
          "type": "bytes32"
        },
        {
          "indexed": false,
          "internalType": "bytes",
          "name": "hash",
          "type": "bytes"
        }
      ],
      "name": "ContenthashChanged",
      "type": "event"
    },
    {
      "anonymous": false,
      "inputs": [
        {
          "indexed": true,
          "internalType": "bytes32",
          "name": "node",
          "type": "bytes32"
        },
        {
          "indexed": false,
          "internalType": "bytes",
          "name": "name",
          "type": "bytes"
        },
        {
          "indexed": false,
          "internalType": "uint16",
          "name": "resource",
          "type": "uint16"
        },
        {
          "indexed": false,
          "internalType": "bytes",
          "name": "record",
          "type": "bytes"
        }
      ],
      "name": "DNSRecordChanged",
      "type": "event"
    },
    {
      "anonymous": false,
      "inputs": [
        {
          "indexed": true,
          "internalType": "bytes32",
          "name": "node",
          "type": "bytes32"
        },
        {
          "indexed": false,
          "internalType": "bytes",
          "name": "name",
          "type": "bytes"
        },
        {
          "indexed": false,
          "internalType": "uint16",
          "name": "resource",
          "type": "uint16"
        }
      ],
      "name": "DNSRecordDeleted",
      "type": "event"
    },
    {
      "anonymous": false,
      "inputs": [
        {
          "indexed": true,
          "internalType": "bytes32",
          "name": "node",
          "type": "bytes32"
        },
        {
          "indexed": false,
          "internalType": "bytes",
          "name": "lastzonehash",
          "type": "bytes"
        },
        {
          "indexed": false,
          "internalType": "bytes",
          "name": "zonehash",
          "type": "bytes"
        }
      ],
      "name": "DNSZonehashChanged",
      "type": "event"
    },
    {
      "anonymous": false,
      "inputs": [
        {
          "indexed": true,
          "internalType": "bytes32",
          "name": "node",
          "type": "bytes32"
        },
        {
          "indexed": true,
          "internalType": "bytes4",
          "name": "interfaceID",
          "type": "bytes4"
        },
        {
          "indexed": false,
          "internalType": "address",
          "name": "implementer",
          "type": "address"
        }
      ],
      "name": "InterfaceChanged",
      "type": "event"
    },
    {
      "anonymous": false,
      "inputs": [
        {
          "indexed": true,
          "internalType": "bytes32",
          "name": "node",
          "type": "bytes32"
        },
        {
          "indexed": false,
          "internalType": "string",
          "name": "name",
          "type": "string"
        }
      ],
      "name": "NameChanged",
      "type": "event"
    },
    {
      "anonymous": false,
      "inputs": [
        {
          "indexed": true,
          "internalType": "bytes32",
          "name": "node",
          "type": "bytes32"
        },
        {
          "indexed": false,
          "internalType": "bytes32",
          "name": "x",
          "type": "bytes32"
        },
        {
          "indexed": false,
          "internalType": "bytes32",
          "name": "y",
          "type": "bytes32"
        }
      ],
      "name": "PubkeyChanged",
      "type": "event"
    },
    {
      "anonymous": false,
      "inputs": [
        {
          "indexed": true,
          "internalType": "bytes32",
          "name": "node",
          "type": "bytes32"
        },
        {
          "indexed": true,
          "internalType": "string",
          "name": "indexedKey",
          "type": "string"
        },
        {
          "indexed": false,
          "internalType": "string",
          "name": "key",
          "type": "string"
        },
        {
          "indexed": false,
          "internalType": "string",
          "name": "value",
          "type": "string"
        }
      ],
      "name": "TextChanged",
      "type": "event"
    },
    {
      "anonymous": false,
      "inputs": [
        {
          "indexed": true,
          "internalType": "bytes32",
          "name": "node",
          "type": "bytes32"
        },
        {
          "indexed": false,
          "internalType": "uint64",
          "name": "newVersion",
          "type": "uint64"
        }
      ],
      "name": "VersionChanged",
      "type": "event"
    },
    {
      "inputs": [
        {
          "internalType": "bytes32",
          "name": "node",
          "type": "bytes32"
        },
        {
          "internalType": "uint256",
          "name": "contentTypes",
          "type": "uint256"
        }
      ],
      "name": "ABI",
      "outputs": [
        {
          "internalType": "uint256",
          "name": "",
          "type": "uint256"
        },
        {
          "internalType": "bytes",
          "name": "",
          "type": "bytes"
        }
      ],
      "stateMutability": "view",
      "type": "function"
    },
    {
      "inputs": [
        {
          "internalType": "bytes32",
          "name": "node",
          "type": "bytes32"
        }
      ],
      "name": "addr",
      "outputs": [
        {
          "internalType": "address payable",
          "name": "",
          "type": "address"
        }
      ],
      "stateMutability": "view",
      "type": "function"
    },
    {
      "inputs": [
        {
          "internalType": "bytes32",
          "name": "node",
          "type": "bytes32"
        },
        {
          "internalType": "uint256",
          "name": "coinType",
          "type": "uint256"
        }
      ],
      "name": "addr",
      "outputs": [
        {
          "internalType": "bytes",
          "name": "",
          "type": "bytes"
        }
      ],
      "stateMutability": "view",
      "type": "function"
    },
    {
      "inputs": [
        {
          "internalType": "bytes32",
          "name": "node",
          "type": "bytes32"
        },
        {
          "internalType": "address",
          "name": "delegate",
          "type": "address"
        },
        {
          "internalType": "bool",
          "name": "approved",
          "type": "bool"
        }
      ],
      "name": "approve",
      "outputs": [],
      "stateMutability": "nonpayable",
      "type": "function"
    },
    {
      "inputs": [
        {
          "internalType": "bytes32",
          "name": "node",
          "type": "bytes32"
        }
      ],
      "name": "clearRecords",
      "outputs": [],
      "stateMutability": "nonpayable",
      "type": "function"
    },
    {
      "inputs": [
        {
          "internalType": "bytes32",
          "name": "node",
          "type": "bytes32"
        }
      ],
      "name": "contenthash",
      "outputs": [
        {
          "internalType": "bytes",
          "name": "",
          "type": "bytes"
        }
      ],
      "stateMutability": "view",
      "type": "function"
    },
    {
      "inputs": [
        {
          "internalType": "bytes32",
          "name": "node",
          "type": "bytes32"
        },
        {
          "internalType": "bytes32",
          "name": "name",
          "type": "bytes32"
        },
        {
          "internalType": "uint16",
          "name": "resource",
          "type": "uint16"
        }
      ],
      "name": "dnsRecord",
      "outputs": [
        {
          "internalType": "bytes",
          "name": "",
          "type": "bytes"
        }
      ],
      "stateMutability": "view",
      "type": "function"
    },
    {
      "inputs": [
        {
          "internalType": "bytes32",
          "name": "node",
          "type": "bytes32"
        },
        {
          "internalType": "bytes32",
          "name": "name",
          "type": "bytes32"
        }
      ],
      "name": "hasDNSRecords",
      "outputs": [
        {
          "internalType": "bool",
          "name": "",
          "type": "bool"
        }
      ],
      "stateMutability": "view",
      "type": "function"
    },
    {
      "inputs": [
        {
          "internalType": "bytes32",
          "name": "node",
          "type": "bytes32"
        },
        {
          "internalType": "bytes4",
          "name": "interfaceID",
          "type": "bytes4"
        }
      ],
      "name": "interfaceImplementer",
      "outputs": [
        {
          "internalType": "address",
          "name": "",
          "type": "address"
        }
      ],
      "stateMutability": "view",
      "type": "function"
    },
    {
      "inputs": [
        {
          "internalType": "address",
          "name": "owner",
          "type": "address"
        },
        {
          "internalType": "bytes32",
          "name": "node",
          "type": "bytes32"
        },
        {
          "internalType": "address",
          "name": "delegate",
          "type": "address"
        }
      ],
      "name": "isApprovedFor",
      "outputs": [
        {
          "internalType": "bool",
          "name": "",
          "type": "bool"
        }
      ],
      "stateMutability": "view",
      "type": "function"
    },
    {
      "inputs": [
        {
          "internalType": "address",
          "name": "account",
          "type": "address"
        },
        {
          "internalType": "address",
          "name": "operator",
          "type": "address"
        }
      ],
      "name": "isApprovedForAll",
      "outputs": [
        {
          "internalType": "bool",
          "name": "",
          "type": "bool"
        }
      ],
      "stateMutability": "view",
      "type": "function"
    },
    {
      "inputs": [
        {
          "internalType": "bytes[]",
          "name": "data",
          "type": "bytes[]"
        }
      ],
      "name": "multicall",
      "outputs": [
        {
          "internalType": "bytes[]",
          "name": "results",
          "type": "bytes[]"
        }
      ],
      "stateMutability": "nonpayable",
      "type": "function"
    },
    {
      "inputs": [
        {
          "internalType": "bytes32",
          "name": "nodehash",
          "type": "bytes32"
        },
        {
          "internalType": "bytes[]",
          "name": "data",
          "type": "bytes[]"
        }
      ],
      "name": "multicallWithNodeCheck",
      "outputs": [
        {
          "internalType": "bytes[]",
          "name": "results",
          "type": "bytes[]"
        }
      ],
      "stateMutability": "nonpayable",
      "type": "function"
    },
    {
      "inputs": [
        {
          "internalType": "bytes32",
          "name": "node",
          "type": "bytes32"
        }
      ],
      "name": "name",
      "outputs": [
        {
          "internalType": "string",
          "name": "",
          "type": "string"
        }
      ],
      "stateMutability": "view",
      "type": "function"
    },
    {
      "inputs": [
        {
          "internalType": "bytes32",
          "name": "node",
          "type": "bytes32"
        }
      ],
      "name": "pubkey",
      "outputs": [
        {
          "internalType": "bytes32",
          "name": "x",
          "type": "bytes32"
        },
        {
          "internalType": "bytes32",
          "name": "y",
          "type": "bytes32"
        }
      ],
      "stateMutability": "view",
      "type": "function"
    },
    {
      "inputs": [
        {
          "internalType": "bytes32",
          "name": "",
          "type": "bytes32"
        }
      ],
      "name": "recordVersions",
      "outputs": [
        {
          "internalType": "uint64",
          "name": "",
          "type": "uint64"
        }
      ],
      "stateMutability": "view",
      "type": "function"
    },
    {
      "inputs": [
        {
          "internalType": "bytes",
          "name": "",
          "type": "bytes"
        },
        {
          "internalType": "bytes",
          "name": "data",
          "type": "bytes"
        }
      ],
      "name": "resolve",
      "outputs": [
        {
          "internalType": "bytes",
          "name": "",
          "type": "bytes"
        }
      ],
      "stateMutability": "view",
      "type": "function"
    },
    {
      "inputs": [
        {
          "internalType": "bytes32",
          "name": "node",
          "type": "bytes32"
        },
        {
          "internalType": "uint256",
          "name": "contentType",
          "type": "uint256"
        },
        {
          "internalType": "bytes",
          "name": "data",
          "type": "bytes"
        }
      ],
      "name": "setABI",
      "outputs": [],
      "stateMutability": "nonpayable",
      "type": "function"
    },
    {
      "inputs": [
        {
          "internalType": "bytes32",
          "name": "node",
          "type": "bytes32"
        },
        {
          "internalType": "uint256",
          "name": "coinType",
          "type": "uint256"
        },
        {
          "internalType": "bytes",
          "name": "a",
          "type": "bytes"
        }
      ],
      "name": "setAddr",
      "outputs": [],
      "stateMutability": "nonpayable",
      "type": "function"
    },
    {
      "inputs": [
        {
          "internalType": "bytes32",
          "name": "node",
          "type": "bytes32"
        },
        {
          "internalType": "address",
          "name": "a",
          "type": "address"
        }
      ],
      "name": "setAddr",
      "outputs": [],
      "stateMutability": "nonpayable",
      "type": "function"
    },
    {
      "inputs": [
        {
          "internalType": "address",
          "name": "operator",
          "type": "address"
        },
        {
          "internalType": "bool",
          "name": "approved",
          "type": "bool"
        }
      ],
      "name": "setApprovalForAll",
      "outputs": [],
      "stateMutability": "nonpayable",
      "type": "function"
    },
    {
      "inputs": [
        {
          "internalType": "bytes32",
          "name": "node",
          "type": "bytes32"
        },
        {
          "internalType": "bytes",
          "name": "hash",
          "type": "bytes"
        }
      ],
      "name": "setContenthash",
      "outputs": [],
      "stateMutability": "nonpayable",
      "type": "function"
    },
    {
      "inputs": [
        {
          "internalType": "bytes32",
          "name": "node",
          "type": "bytes32"
        },
        {
          "internalType": "bytes",
          "name": "data",
          "type": "bytes"
        }
      ],
      "name": "setDNSRecords",
      "outputs": [],
      "stateMutability": "nonpayable",
      "type": "function"
    },
    {
      "inputs": [
        {
          "internalType": "bytes32",
          "name": "node",
          "type": "bytes32"
        },
        {
          "internalType": "bytes4",
          "name": "interfaceID",
          "type": "bytes4"
        },
        {
          "internalType": "address",
          "name": "implementer",
          "type": "address"
        }
      ],
      "name": "setInterface",
      "outputs": [],
      "stateMutability": "nonpayable",
      "type": "function"
    },
    {
      "inputs": [
        {
          "internalType": "bytes32",
          "name": "node",
          "type": "bytes32"
        },
        {
          "internalType": "string",
          "name": "newName",
          "type": "string"
        }
      ],
      "name": "setName",
      "outputs": [],
      "stateMutability": "nonpayable",
      "type": "function"
    },
    {
      "inputs": [
        {
          "internalType": "bytes32",
          "name": "node",
          "type": "bytes32"
        },
        {
          "internalType": "bytes32",
          "name": "x",
          "type": "bytes32"
        },
        {
          "internalType": "bytes32",
          "name": "y",
          "type": "bytes32"
        }
      ],
      "name": "setPubkey",
      "outputs": [],
      "stateMutability": "nonpayable",
      "type": "function"
    },
    {
      "inputs": [
        {
          "internalType": "bytes32",
          "name": "node",
          "type": "bytes32"
        },
        {
          "internalType": "string",
          "name": "key",
          "type": "string"
        },
        {
          "internalType": "string",
          "name": "value",
          "type": "string"
        }
      ],
      "name": "setText",
      "outputs": [],
      "stateMutability": "nonpayable",
      "type": "function"
    },
    {
      "inputs": [
        {
          "internalType": "bytes32",
          "name": "node",
          "type": "bytes32"
        },
        {
          "internalType": "bytes",
          "name": "hash",
          "type": "bytes"
        }
      ],
      "name": "setZonehash",
      "outputs": [],
      "stateMutability": "nonpayable",
      "type": "function"
    },
    {
      "inputs": [
        {
          "internalType": "bytes4",
          "name": "interfaceID",
          "type": "bytes4"
        }
      ],
      "name": "supportsInterface",
      "outputs": [
        {
          "internalType": "bool",
          "name": "",
          "type": "bool"
        }
      ],
      "stateMutability": "view",
      "type": "function"
    },
    {
      "inputs": [
        {
          "internalType": "bytes32",
          "name": "node",
          "type": "bytes32"
        },
        {
          "internalType": "string",
          "name": "key",
          "type": "string"
        }
      ],
      "name": "text",
      "outputs": [
        {
          "internalType": "string",
          "name": "",
          "type": "string"
        }
      ],
      "stateMutability": "view",
      "type": "function"
    },
    {
      "inputs": [
        {
          "internalType": "bytes32",
          "name": "node",
          "type": "bytes32"
        }
      ],
      "name": "zonehash",
      "outputs": [
        {
          "internalType": "bytes",
          "name": "",
          "type": "bytes"
        }
      ],
      "stateMutability": "view",
      "type": "function"
    }
  ],
  "transactionHash": "0x08b47bdb71795f5ac08545287620ef33278e2ce2ca456867b5ba3ec141b24c20",
  "args": [
    "0x5FbDB2315678afecb367f032d93F642f64180aa3",
    "0xB7f8BC63BbcaD18155201308C8f3540b07f84F5e",
    "0x0B306BF915C4d645ff596e518fAf3F9669b97016",
    "0x0DCd1Bf9A1b36cE34237eEaFef220932846BCD82"
  ],
  "numDeployments": 1,
  "solcInputHash": "33e213ebadbabf506b0f945b2289f453",
  "bytecode": "0x6101006040523480156200001257600080fd5b506040516200329d3803806200329d833981016040819052620000359162000071565b6001600160a01b0393841660805291831660a052821660c0521660e052620000d9565b6001600160a01b03811681146200006e57600080fd5b50565b600080600080608085870312156200008857600080fd5b8451620000958162000058565b6020860151909450620000a88162000058565b6040860151909350620000bb8162000058565b6060860151909250620000ce8162000058565b939692955090935050565b60805160a05160c05160e0516131836200011a600039600061186e0152600061183c01526000818161194601526119ac015260006118cf01526131836000f3fe608060405234801561001057600080fd5b50600436106101e55760003560e01c80638b95dd711161010f578063c8690233116100a2578063e32954eb11610071578063e32954eb14610522578063e59d895d14610535578063e985e9c514610548578063f1cb7e061461058457600080fd5b8063c869023314610460578063ce3decdc146104b9578063d5fa2b00146104cc578063d700ff33146104df57600080fd5b8063a8fa5682116100de578063a8fa5682146103d6578063a9784b3e146103e9578063ac9650d81461042d578063bc1c58d11461044d57600080fd5b80638b95dd711461038a5780639061b9231461039d578063a22cb465146103b0578063a4b91a01146103c357600080fd5b80633603d758116101875780635c98042b116101565780635c98042b1461033e578063623195b014610351578063691f343114610364578063773722131461037757600080fd5b80633603d758146102ac5780633b3b57de146102bf5780634cbf6ba4146102d257806359d1d43c1461031e57600080fd5b8063124a319c116101c3578063124a319c1461023a5780632203ab561461026557806329cd62ea14610286578063304e6ade1461029957600080fd5b806301ffc9a7146101ea5780630af179d71461021257806310f13a8c14610227575b600080fd5b6101fd6101f83660046125c0565b610597565b60405190151581526020015b60405180910390f35b61022561022036600461261d565b6105a8565b005b610225610235366004612669565b6107b2565b61024d6102483660046126e3565b61087f565b6040516001600160a01b039091168152602001610209565b61027861027336600461270f565b610b2b565b604051610209929190612781565b61022561029436600461279a565b610c62565b6102256102a736600461261d565b610cfd565b6102256102ba3660046127c6565b610d79565b61024d6102cd3660046127c6565b610e1c565b6101fd6102e036600461270f565b6000828152602081815260408083205467ffffffffffffffff1683526006825280832094835293815283822092825291909152205461ffff16151590565b61033161032c36600461261d565b610e4e565b60405161020991906127df565b61033161034c3660046127c6565b610f2e565b61022561035f3660046127f2565b610fed565b6103316103723660046127c6565b61108a565b61022561038536600461261d565b6110c4565b6102256103983660046128e8565b611140565b6103316103ab366004612938565b611220565b6102256103be3660046129c1565b611299565b6102256103d13660046129ed565b611388565b6103316103e4366004612a2b565b611455565b6101fd6103f7366004612a6b565b6001600160a01b039283166000908152600c60209081526040808320948352938152838220929094168152925290205460ff1690565b61044061043b366004612ae7565b6114a3565b6040516102099190612b29565b61033161045b3660046127c6565b6114b1565b6104a461046e3660046127c6565b6000818152602081815260408083205467ffffffffffffffff168352600982528083209383529290522080546001909101549091565b60408051928352602083019190915201610209565b6102256104c736600461261d565b6114eb565b6102256104da366004612ba9565b61162e565b6105096104ed3660046127c6565b60006020819052908152604090205467ffffffffffffffff1681565b60405167ffffffffffffffff9091168152602001610209565b610440610530366004612bd9565b611655565b610225610543366004612c18565b61166a565b6101fd610556366004612c4d565b6001600160a01b039182166000908152600b6020908152604080832093909416825291909152205460ff1690565b61033161059236600461270f565b611729565b60006105a2826117f1565b92915050565b826105b28161182f565b6105bb57600080fd5b600084815260208181526040808320548151601f870184900484028101840190925285825283926060928392859267ffffffffffffffff9091169183916106219183918d908d90819084018382808284376000920191909152509293925050611a969050565b90505b8051516020820151101561074b578661ffff16600003610689578060400151965061064e81611af7565b9450846040516020016106619190612c7b565b60405160208183030381529060405280519060200120925061068281611b18565b935061073d565b600061069482611af7565b9050816040015161ffff168861ffff161415806106b857506106b68682611b34565b155b1561073b576107148c878a8e8e8080601f016020809104026020016040519081016040528093929190818152602001838380828437600092019190915250505060208801518d915061070b908290612cad565b8b51158a611b52565b81604001519750816020015196508095508580519060200120935061073882611b18565b94505b505b61074681611dbf565b610624565b508351156107a6576107a68a85888c8c8080601f0160208091040260200160405190810160405280939291908181526020018383808284376000920191909152508c925061079d91508290508f612cad565b89511588611b52565b50505050505050505050565b846107bc8161182f565b6107c557600080fd5b6000868152602081815260408083205467ffffffffffffffff168352600a8252808320898452909152908190209051849184916108059089908990612cc0565b90815260200160405180910390209182610820929190612d58565b508484604051610831929190612cc0565b6040518091039020867f448bc014f1536726cf8d54ff3d6481ed3cbc683c2591ca204274009afa09b1a18787878760405161086f9493929190612e43565b60405180910390a3505050505050565b6000828152602081815260408083205467ffffffffffffffff1683526007825280832085845282528083206001600160e01b0319851684529091528120546001600160a01b031680156108d35790506105a2565b60006108de85610e1c565b90506001600160a01b0381166108f9576000925050506105a2565b6040516301ffc9a760e01b602482015260009081906001600160a01b0384169060440160408051601f198184030181529181526020820180517bffffffffffffffffffffffffffffffffffffffffffffffffffffffff166301ffc9a760e01b179052516109669190612c7b565b600060405180830381855afa9150503d80600081146109a1576040519150601f19603f3d011682016040523d82523d6000602084013e6109a6565b606091505b50915091508115806109b9575060208151105b806109fb575080601f815181106109d2576109d2612e75565b01602001517fff0000000000000000000000000000000000000000000000000000000000000016155b15610a0d5760009450505050506105a2565b6040516001600160e01b0319871660248201526001600160a01b0384169060440160408051601f198184030181529181526020820180517bffffffffffffffffffffffffffffffffffffffffffffffffffffffff166301ffc9a760e01b17905251610a789190612c7b565b600060405180830381855afa9150503d8060008114610ab3576040519150601f19603f3d011682016040523d82523d6000602084013e610ab8565b606091505b509092509050811580610acc575060208151105b80610b0e575080601f81518110610ae557610ae5612e75565b01602001517fff0000000000000000000000000000000000000000000000000000000000000016155b15610b205760009450505050506105a2565b509095945050505050565b6000828152602081815260408083205467ffffffffffffffff168352600180835281842086855290925282206060915b848111610c425780851615801590610b8b575060008181526020839052604081208054610b8790612cd0565b9050115b15610c3a5780826000838152602001908152602001600020808054610baf90612cd0565b80601f0160208091040260200160405190810160405280929190818152602001828054610bdb90612cd0565b8015610c285780601f10610bfd57610100808354040283529160200191610c28565b820191906000526020600020905b815481529060010190602001808311610c0b57829003601f168201915b50505050509050935093505050610c5b565b60011b610b5b565b5060006040518060200160405280600081525092509250505b9250929050565b82610c6c8161182f565b610c7557600080fd5b604080518082018252848152602080820185815260008881528083528481205467ffffffffffffffff1681526009835284812089825283528490209251835551600190920191909155815185815290810184905285917f1d6f5e03d3f63eb58751986629a5439baee5079ff04f345becb66e23eb154e4691015b60405180910390a250505050565b82610d078161182f565b610d1057600080fd5b6000848152602081815260408083205467ffffffffffffffff168352600382528083208784529091529020610d46838583612d58565b50837fe379c1624ed7e714cc0937528a32359d69d5281337765313dba4e081b72d75788484604051610cef929190612e8b565b80610d838161182f565b610d8c57600080fd5b6000828152602081905260408120805467ffffffffffffffff1691610db083612e9f565b82546101009290920a67ffffffffffffffff818102199093169183160217909155600084815260208181526040918290205491519190921681528492507fc6621ccb8f3f5a04bb6502154b2caf6adf5983fe76dfef1cfc9c42e3579db444910160405180910390a25050565b600080610e2a83603c611729565b90508051600003610e3e5750600092915050565b610e4781611ea7565b9392505050565b6000838152602081815260408083205467ffffffffffffffff168352600a825280832086845290915290819020905160609190610e8e9085908590612cc0565b90815260200160405180910390208054610ea790612cd0565b80601f0160208091040260200160405190810160405280929190818152602001828054610ed390612cd0565b8015610f205780601f10610ef557610100808354040283529160200191610f20565b820191906000526020600020905b815481529060010190602001808311610f0357829003601f168201915b505050505090509392505050565b6000818152602081815260408083205467ffffffffffffffff168352600482528083208484529091529020805460609190610f6890612cd0565b80601f0160208091040260200160405190810160405280929190818152602001828054610f9490612cd0565b8015610fe15780601f10610fb657610100808354040283529160200191610fe1565b820191906000526020600020905b815481529060010190602001808311610fc457829003601f168201915b50505050509050919050565b83610ff78161182f565b61100057600080fd5b8361100c600182612cad565b161561101757600080fd5b6000858152602081815260408083205467ffffffffffffffff1683526001825280832088845282528083208784529091529020611055838583612d58565b50604051849086907faa121bbeef5f32f5961a2a28966e769023910fc9479059ee3495d4c1a696efe390600090a35050505050565b6000818152602081815260408083205467ffffffffffffffff168352600882528083208484529091529020805460609190610f6890612cd0565b826110ce8161182f565b6110d757600080fd5b6000848152602081815260408083205467ffffffffffffffff16835260088252808320878452909152902061110d838583612d58565b50837fb7d29e911041e8d9b843369e890bcb72c9388692ba48b65ac54e7214c4c348f78484604051610cef929190612e8b565b8261114a8161182f565b61115357600080fd5b837f65412581168e88a1e60c6459d7f44ae83ad0832e670826c05a4e2476b57af7528484604051611185929190612781565b60405180910390a2603c83036111dc57837f52d7d861f09ab3d26239d492e8968629f95e9e318cf0b73bfddc441522a15fd26111c084611ea7565b6040516001600160a01b03909116815260200160405180910390a25b6000848152602081815260408083205467ffffffffffffffff16835260028252808320878452825280832086845290915290206112198382612ec6565b5050505050565b6060600080306001600160a01b03168460405161123d9190612c7b565b600060405180830381855afa9150503d8060008114611278576040519150601f19603f3d011682016040523d82523d6000602084013e61127d565b606091505b509150915081156112915791506105a29050565b805160208201fd5b6001600160a01b038216330361131c5760405162461bcd60e51b815260206004820152602960248201527f455243313135353a2073657474696e6720617070726f76616c2073746174757360448201527f20666f722073656c66000000000000000000000000000000000000000000000060648201526084015b60405180910390fd5b336000818152600b602090815260408083206001600160a01b03871680855290835292819020805460ff191686151590811790915590519081529192917f17307eab39ab6107e8899845ad3d59bd9653f200f220920489ca2b5937696c31910160405180910390a35050565b6001600160a01b03821633036113e05760405162461bcd60e51b815260206004820181905260248201527f53657474696e672064656c65676174652073746174757320666f722073656c666044820152606401611313565b336000818152600c6020908152604080832087845282528083206001600160a01b03871680855290835292819020805460ff191686151590811790915590519384529286917ff0ddb3b04746704017f9aa8bd728fcc2c1d11675041205350018915f5e4750a0910160405180910390a4505050565b6000838152602081815260408083205467ffffffffffffffff168352600582528083208684528252808320858452825280832061ffff851684529091529020805460609190610ea790612cd0565b6060610e4760008484611ecf565b6000818152602081815260408083205467ffffffffffffffff168352600382528083208484529091529020805460609190610f6890612cd0565b826114f58161182f565b6114fe57600080fd5b6000848152602081815260408083205467ffffffffffffffff16808452600483528184208885529092528220805491929161153890612cd0565b80601f016020809104026020016040519081016040528092919081815260200182805461156490612cd0565b80156115b15780601f10611586576101008083540402835291602001916115b1565b820191906000526020600020905b81548152906001019060200180831161159457829003601f168201915b5050505067ffffffffffffffff841660009081526004602090815260408083208b845290915290209192506115e99050858783612d58565b50857f8f15ed4b723ef428f250961da8315675b507046737e19319fc1a4d81bfe87f8582878760405161161e93929190612f86565b60405180910390a2505050505050565b816116388161182f565b61164157600080fd5b61165083603c610398856120a8565b505050565b6060611662848484611ecf565b949350505050565b826116748161182f565b61167d57600080fd5b6000848152602081815260408083205467ffffffffffffffff1683526007825280832087845282528083206001600160e01b031987168085529083529281902080547fffffffffffffffffffffffff0000000000000000000000000000000000000000166001600160a01b038716908117909155905190815286917f7c69f06bea0bdef565b709e93a147836b0063ba2dd89f02d0b7e8d931e6a6daa910160405180910390a350505050565b6000828152602081815260408083205467ffffffffffffffff168352600282528083208584528252808320848452909152902080546060919061176b90612cd0565b80601f016020809104026020016040519081016040528092919081815260200182805461179790612cd0565b80156117e45780601f106117b9576101008083540402835291602001916117e4565b820191906000526020600020905b8154815290600101906020018083116117c757829003601f168201915b5050505050905092915050565b60006001600160e01b031982167f59d1d43c0000000000000000000000000000000000000000000000000000000014806105a257506105a2826120e1565b6000336001600160a01b037f00000000000000000000000000000000000000000000000000000000000000001614806118905750336001600160a01b037f000000000000000000000000000000000000000000000000000000000000000016145b1561189d57506001919050565b6040517f02571be3000000000000000000000000000000000000000000000000000000008152600481018390526000907f00000000000000000000000000000000000000000000000000000000000000006001600160a01b0316906302571be390602401602060405180830381865afa15801561191e573d6000803e3d6000fd5b505050506040513d601f19601f820116820180604052508101906119429190612fb6565b90507f00000000000000000000000000000000000000000000000000000000000000006001600160a01b0316816001600160a01b031603611a22576040517f6352211e000000000000000000000000000000000000000000000000000000008152600481018490527f00000000000000000000000000000000000000000000000000000000000000006001600160a01b031690636352211e90602401602060405180830381865afa1580156119fb573d6000803e3d6000fd5b505050506040513d601f19601f82011682018060405250810190611a1f9190612fb6565b90505b6001600160a01b038116331480611a5c57506001600160a01b0381166000908152600b6020908152604080832033845290915290205460ff165b80610e4757506001600160a01b0381166000908152600c60209081526040808320868452825280832033845290915290205460ff16610e47565b611ae46040518060e001604052806060815260200160008152602001600061ffff168152602001600061ffff168152602001600063ffffffff16815260200160008152602001600081525090565b82815260c081018290526105a281611dbf565b602081015181516060916105a291611b0f908261211f565b84519190612179565b60a081015160c08201516060916105a291611b0f908290612cad565b600081518351148015610e475750610e4783600084600087516121f0565b865160208801206000611b66878787612179565b90508315611c905767ffffffffffffffff831660009081526005602090815260408083208d84528252808320858452825280832061ffff8c16845290915290208054611bb190612cd0565b159050611c105767ffffffffffffffff831660009081526006602090815260408083208d845282528083208584529091528120805461ffff1691611bf483612fd3565b91906101000a81548161ffff021916908361ffff160217905550505b67ffffffffffffffff831660009081526005602090815260408083208d84528252808320858452825280832061ffff8c1684529091528120611c519161254d565b897f03528ed0c2a3ebc993b12ce3c16bb382f9c7d88ef7d8a1bf290eaf35955a12078a8a604051611c83929190612ff1565b60405180910390a26107a6565b67ffffffffffffffff831660009081526005602090815260408083208d84528252808320858452825280832061ffff8c16845290915290208054611cd390612cd0565b9050600003611d345767ffffffffffffffff831660009081526006602090815260408083208d845282528083208584529091528120805461ffff1691611d1883613017565b91906101000a81548161ffff021916908361ffff160217905550505b67ffffffffffffffff831660009081526005602090815260408083208d84528252808320858452825280832061ffff8c1684529091529020611d768282612ec6565b50897f52a608b3303a48862d07a73d82fa221318c0027fbbcfb1b2329bface3f19ff2b8a8a84604051611dab9392919061302e565b60405180910390a250505050505050505050565b60c08101516020820181905281515111611dd65750565b6000611dea8260000151836020015161211f565b8260200151611df9919061305d565b8251909150611e089082612213565b61ffff166040830152611e1c60028261305d565b8251909150611e2b9082612213565b61ffff166060830152611e3f60028261305d565b8251909150611e4e908261223b565b63ffffffff166080830152611e6460048261305d565b8251909150600090611e769083612213565b61ffff169050611e8760028361305d565b60a084018190529150611e9a818361305d565b60c0909301929092525050565b60008151601414611eb757600080fd5b50602001516c01000000000000000000000000900490565b60608167ffffffffffffffff811115611eea57611eea612845565b604051908082528060200260200182016040528015611f1d57816020015b6060815260200190600190039081611f085790505b50905060005b828110156120a0578415611fe8576000848483818110611f4557611f45612e75565b9050602002810190611f579190613070565b611f66916024916004916130d5565b611f6f916130ff565b9050858114611fe65760405162461bcd60e51b815260206004820152603460248201527f6d756c746963616c6c3a20416c6c207265636f726473206d757374206861766560448201527f2061206d61746368696e67206e616d65686173680000000000000000000000006064820152608401611313565b505b60008030868685818110611ffe57611ffe612e75565b90506020028101906120109190613070565b60405161201e929190612cc0565b600060405180830381855af49150503d8060008114612059576040519150601f19603f3d011682016040523d82523d6000602084013e61205e565b606091505b50915091508161206d57600080fd5b8084848151811061208057612080612e75565b6020026020010181905250505080806120989061311d565b915050611f23565b509392505050565b6040805160148082528183019092526060916020820181803683375050506c010000000000000000000000009290920260208301525090565b60006001600160e01b031982167fc86902330000000000000000000000000000000000000000000000000000000014806105a257506105a282612265565b6000815b8351811061213357612133613137565b600061213f85836122a3565b60ff16905061214f81600161305d565b612159908361305d565b915080600003612169575061216f565b50612123565b6116628382612cad565b8251606090612188838561305d565b111561219357600080fd5b60008267ffffffffffffffff8111156121ae576121ae612845565b6040519080825280601f01601f1916602001820160405280156121d8576020820181803683370190505b50905060208082019086860101610b208282876122c7565b60006121fd84848461231d565b61220887878561231d565b149695505050505050565b815160009061222383600261305d565b111561222e57600080fd5b50016002015161ffff1690565b815160009061224b83600461305d565b111561225657600080fd5b50016004015163ffffffff1690565b60006001600160e01b031982167f691f34310000000000000000000000000000000000000000000000000000000014806105a257506105a282612341565b60008282815181106122b7576122b7612e75565b016020015160f81c905092915050565b602081106122ff57815183526122de60208461305d565b92506122eb60208361305d565b91506122f8602082612cad565b90506122c7565b905182516020929092036101000a6000190180199091169116179052565b825160009061232c838561305d565b111561233757600080fd5b5091016020012090565b60006001600160e01b031982167f124a319c0000000000000000000000000000000000000000000000000000000014806105a257506105a28260006001600160e01b031982167fa8fa56820000000000000000000000000000000000000000000000000000000014806123dd57506001600160e01b031982167f5c98042b00000000000000000000000000000000000000000000000000000000145b806105a257506105a28260006001600160e01b031982167fbc1c58d10000000000000000000000000000000000000000000000000000000014806105a257506105a28260006001600160e01b031982167f3b3b57de00000000000000000000000000000000000000000000000000000000148061248357506001600160e01b031982167ff1cb7e0600000000000000000000000000000000000000000000000000000000145b806105a257506105a28260006001600160e01b031982167f2203ab560000000000000000000000000000000000000000000000000000000014806105a257506105a28260006001600160e01b031982167fd700ff330000000000000000000000000000000000000000000000000000000014806105a257506105a28260006001600160e01b031982167f4fbf04330000000000000000000000000000000000000000000000000000000014806105a257506301ffc9a760e01b6001600160e01b03198316146105a2565b50805461255990612cd0565b6000825580601f10612569575050565b601f016020900490600052602060002090810190612587919061258a565b50565b5b8082111561259f576000815560010161258b565b5090565b80356001600160e01b0319811681146125bb57600080fd5b919050565b6000602082840312156125d257600080fd5b610e47826125a3565b60008083601f8401126125ed57600080fd5b50813567ffffffffffffffff81111561260557600080fd5b602083019150836020828501011115610c5b57600080fd5b60008060006040848603121561263257600080fd5b83359250602084013567ffffffffffffffff81111561265057600080fd5b61265c868287016125db565b9497909650939450505050565b60008060008060006060868803121561268157600080fd5b85359450602086013567ffffffffffffffff808211156126a057600080fd5b6126ac89838a016125db565b909650945060408801359150808211156126c557600080fd5b506126d2888289016125db565b969995985093965092949392505050565b600080604083850312156126f657600080fd5b82359150612706602084016125a3565b90509250929050565b6000806040838503121561272257600080fd5b50508035926020909101359150565b60005b8381101561274c578181015183820152602001612734565b50506000910152565b6000815180845261276d816020860160208601612731565b601f01601f19169290920160200192915050565b8281526040602082015260006116626040830184612755565b6000806000606084860312156127af57600080fd5b505081359360208301359350604090920135919050565b6000602082840312156127d857600080fd5b5035919050565b602081526000610e476020830184612755565b6000806000806060858703121561280857600080fd5b8435935060208501359250604085013567ffffffffffffffff81111561282d57600080fd5b612839878288016125db565b95989497509550505050565b634e487b7160e01b600052604160045260246000fd5b600082601f83011261286c57600080fd5b813567ffffffffffffffff8082111561288757612887612845565b604051601f8301601f19908116603f011681019082821181831017156128af576128af612845565b816040528381528660208588010111156128c857600080fd5b836020870160208301376000602085830101528094505050505092915050565b6000806000606084860312156128fd57600080fd5b8335925060208401359150604084013567ffffffffffffffff81111561292257600080fd5b61292e8682870161285b565b9150509250925092565b6000806040838503121561294b57600080fd5b823567ffffffffffffffff8082111561296357600080fd5b61296f8683870161285b565b9350602085013591508082111561298557600080fd5b506129928582860161285b565b9150509250929050565b6001600160a01b038116811461258757600080fd5b803580151581146125bb57600080fd5b600080604083850312156129d457600080fd5b82356129df8161299c565b9150612706602084016129b1565b600080600060608486031215612a0257600080fd5b833592506020840135612a148161299c565b9150612a22604085016129b1565b90509250925092565b600080600060608486031215612a4057600080fd5b8335925060208401359150604084013561ffff81168114612a6057600080fd5b809150509250925092565b600080600060608486031215612a8057600080fd5b8335612a8b8161299c565b9250602084013591506040840135612a608161299c565b60008083601f840112612ab457600080fd5b50813567ffffffffffffffff811115612acc57600080fd5b6020830191508360208260051b8501011115610c5b57600080fd5b60008060208385031215612afa57600080fd5b823567ffffffffffffffff811115612b1157600080fd5b612b1d85828601612aa2565b90969095509350505050565b6000602080830181845280855180835260408601915060408160051b870101925083870160005b82811015612b9c577fffffffffffffffffffffffffffffffffffffffffffffffffffffffffffffffc0888603018452612b8a858351612755565b94509285019290850190600101612b50565b5092979650505050505050565b60008060408385031215612bbc57600080fd5b823591506020830135612bce8161299c565b809150509250929050565b600080600060408486031215612bee57600080fd5b83359250602084013567ffffffffffffffff811115612c0c57600080fd5b61265c86828701612aa2565b600080600060608486031215612c2d57600080fd5b83359250612c3d602085016125a3565b91506040840135612a608161299c565b60008060408385031215612c6057600080fd5b8235612c6b8161299c565b91506020830135612bce8161299c565b60008251612c8d818460208701612731565b9190910192915050565b634e487b7160e01b600052601160045260246000fd5b818103818111156105a2576105a2612c97565b8183823760009101908152919050565b600181811c90821680612ce457607f821691505b602082108103612d0457634e487b7160e01b600052602260045260246000fd5b50919050565b601f82111561165057600081815260208120601f850160051c81016020861015612d315750805b601f850160051c820191505b81811015612d5057828155600101612d3d565b505050505050565b67ffffffffffffffff831115612d7057612d70612845565b612d8483612d7e8354612cd0565b83612d0a565b6000601f841160018114612db85760008515612da05750838201355b600019600387901b1c1916600186901b178355611219565b600083815260209020601f19861690835b82811015612de95786850135825560209485019460019092019101612dc9565b5086821015612e065760001960f88860031b161c19848701351681555b505060018560011b0183555050505050565b818352818160208501375060006020828401015260006020601f19601f840116840101905092915050565b604081526000612e57604083018688612e18565b8281036020840152612e6a818587612e18565b979650505050505050565b634e487b7160e01b600052603260045260246000fd5b602081526000611662602083018486612e18565b600067ffffffffffffffff808316818103612ebc57612ebc612c97565b6001019392505050565b815167ffffffffffffffff811115612ee057612ee0612845565b612ef481612eee8454612cd0565b84612d0a565b602080601f831160018114612f295760008415612f115750858301515b600019600386901b1c1916600185901b178555612d50565b600085815260208120601f198616915b82811015612f5857888601518255948401946001909101908401612f39565b5085821015612f765787850151600019600388901b60f8161c191681555b5050505050600190811b01905550565b604081526000612f996040830186612755565b8281036020840152612fac818587612e18565b9695505050505050565b600060208284031215612fc857600080fd5b8151610e478161299c565b600061ffff821680612fe757612fe7612c97565b6000190192915050565b6040815260006130046040830185612755565b905061ffff831660208301529392505050565b600061ffff808316818103612ebc57612ebc612c97565b6060815260006130416060830186612755565b61ffff851660208401528281036040840152612fac8185612755565b808201808211156105a2576105a2612c97565b60008083357fffffffffffffffffffffffffffffffffffffffffffffffffffffffffffffffe18436030181126130a557600080fd5b83018035915067ffffffffffffffff8211156130c057600080fd5b602001915036819003821315610c5b57600080fd5b600080858511156130e557600080fd5b838611156130f257600080fd5b5050820193919092039150565b803560208310156105a257600019602084900360031b1b1692915050565b6000600019820361313057613130612c97565b5060010190565b634e487b7160e01b600052600160045260246000fdfea2646970667358221220bf9da167d7ddc5dcd6c64d4e262d3aba1b7f9fa6e01347671f2c022287f46f6964736f6c63430008110033",
  "devdoc": {
    "kind": "dev",
    "methods": {
      "ABI(bytes32,uint256)": {
        "params": {
          "contentTypes": "A bitwise OR of the ABI formats accepted by the caller.",
          "node": "The ENS node to query"
        },
        "returns": {
          "_0": "contentType The content type of the return value",
          "_1": "data The ABI data"
        }
      },
      "addr(bytes32)": {
        "params": {
          "node": "The ENS node to query."
        },
        "returns": {
          "_0": "The associated address."
        }
      },
      "approve(bytes32,address,bool)": {
        "details": "Approve a delegate to be able to updated records on a node."
      },
      "clearRecords(bytes32)": {
        "params": {
          "node": "The node to update."
        }
      },
      "contenthash(bytes32)": {
        "params": {
          "node": "The ENS node to query."
        },
        "returns": {
          "_0": "The associated contenthash."
        }
      },
      "dnsRecord(bytes32,bytes32,uint16)": {
        "params": {
          "name": "the keccak-256 hash of the fully-qualified name for which to fetch the record",
          "node": "the namehash of the node for which to fetch the record",
          "resource": "the ID of the resource as per https://en.wikipedia.org/wiki/List_of_DNS_record_types"
        },
        "returns": {
          "_0": "the DNS record in wire format if present, otherwise empty"
        }
      },
      "hasDNSRecords(bytes32,bytes32)": {
        "params": {
          "name": "the namehash of the node for which to check the records",
          "node": "the namehash of the node for which to check the records"
        }
      },
      "interfaceImplementer(bytes32,bytes4)": {
        "params": {
          "interfaceID": "The EIP 165 interface ID to check for.",
          "node": "The ENS node to query."
        },
        "returns": {
          "_0": "The address that implements this interface, or 0 if the interface is unsupported."
        }
      },
      "isApprovedFor(address,bytes32,address)": {
        "details": "Check to see if the delegate has been approved by the owner for the node."
      },
      "isApprovedForAll(address,address)": {
        "details": "See {IERC1155-isApprovedForAll}."
      },
      "name(bytes32)": {
        "params": {
          "node": "The ENS node to query."
        },
        "returns": {
          "_0": "The associated name."
        }
      },
      "pubkey(bytes32)": {
        "params": {
          "node": "The ENS node to query"
        },
        "returns": {
          "x": "The X coordinate of the curve point for the public key.",
          "y": "The Y coordinate of the curve point for the public key."
        }
      },
      "setABI(bytes32,uint256,bytes)": {
        "params": {
          "contentType": "The content type of the ABI",
          "data": "The ABI data.",
          "node": "The node to update."
        }
      },
      "setAddr(bytes32,address)": {
        "params": {
          "a": "The address to set.",
          "node": "The node to update."
        }
      },
      "setApprovalForAll(address,bool)": {
        "details": "See {IERC1155-setApprovalForAll}."
      },
      "setContenthash(bytes32,bytes)": {
        "params": {
          "hash": "The contenthash to set",
          "node": "The node to update."
        }
      },
      "setDNSRecords(bytes32,bytes)": {
        "params": {
          "data": "the DNS wire format records to set",
          "node": "the namehash of the node for which to set the records"
        }
      },
      "setInterface(bytes32,bytes4,address)": {
        "params": {
          "implementer": "The address of a contract that implements this interface for this node.",
          "interfaceID": "The EIP 165 interface ID.",
          "node": "The node to update."
        }
      },
      "setName(bytes32,string)": {
        "params": {
          "node": "The node to update."
        }
      },
      "setPubkey(bytes32,bytes32,bytes32)": {
        "params": {
          "node": "The ENS node to query",
          "x": "the X coordinate of the curve point for the public key.",
          "y": "the Y coordinate of the curve point for the public key."
        }
      },
      "setText(bytes32,string,string)": {
        "params": {
          "key": "The key to set.",
          "node": "The node to update.",
          "value": "The text data value to set."
        }
      },
      "setZonehash(bytes32,bytes)": {
        "params": {
          "hash": "The zonehash to set",
          "node": "The node to update."
        }
      },
      "text(bytes32,string)": {
        "params": {
          "key": "The text data key to query.",
          "node": "The ENS node to query."
        },
        "returns": {
          "_0": "The associated text data."
        }
      },
      "zonehash(bytes32)": {
        "params": {
          "node": "The ENS node to query."
        },
        "returns": {
          "_0": "The associated contenthash."
        }
      }
    },
    "version": 1
  },
  "userdoc": {
    "kind": "user",
    "methods": {
      "ABI(bytes32,uint256)": {
        "notice": "Returns the ABI associated with an ENS node. Defined in EIP205."
      },
      "addr(bytes32)": {
        "notice": "Returns the address associated with an ENS node."
      },
      "clearRecords(bytes32)": {
        "notice": "Increments the record version associated with an ENS node. May only be called by the owner of that node in the ENS registry."
      },
      "contenthash(bytes32)": {
        "notice": "Returns the contenthash associated with an ENS node."
      },
      "dnsRecord(bytes32,bytes32,uint16)": {
        "notice": "Obtain a DNS record."
      },
      "hasDNSRecords(bytes32,bytes32)": {
        "notice": "Check if a given node has records."
      },
      "interfaceImplementer(bytes32,bytes4)": {
        "notice": "Returns the address of a contract that implements the specified interface for this name. If an implementer has not been set for this interfaceID and name, the resolver will query the contract at `addr()`. If `addr()` is set, a contract exists at that address, and that contract implements EIP165 and returns `true` for the specified interfaceID, its address will be returned."
      },
      "name(bytes32)": {
        "notice": "Returns the name associated with an ENS node, for reverse records. Defined in EIP181."
      },
      "pubkey(bytes32)": {
        "notice": "Returns the SECP256k1 public key associated with an ENS node. Defined in EIP 619."
      },
      "setABI(bytes32,uint256,bytes)": {
        "notice": "Sets the ABI associated with an ENS node. Nodes may have one ABI of each content type. To remove an ABI, set it to the empty string."
      },
      "setAddr(bytes32,address)": {
        "notice": "Sets the address associated with an ENS node. May only be called by the owner of that node in the ENS registry."
      },
      "setContenthash(bytes32,bytes)": {
        "notice": "Sets the contenthash associated with an ENS node. May only be called by the owner of that node in the ENS registry."
      },
      "setDNSRecords(bytes32,bytes)": {
        "notice": "Set one or more DNS records.  Records are supplied in wire-format. Records with the same node/name/resource must be supplied one after the other to ensure the data is updated correctly. For example, if the data was supplied:     a.example.com IN A 1.2.3.4     a.example.com IN A 5.6.7.8     www.example.com IN CNAME a.example.com. then this would store the two A records for a.example.com correctly as a single RRSET, however if the data was supplied:     a.example.com IN A 1.2.3.4     www.example.com IN CNAME a.example.com.     a.example.com IN A 5.6.7.8 then this would store the first A record, the CNAME, then the second A record which would overwrite the first."
      },
      "setInterface(bytes32,bytes4,address)": {
        "notice": "Sets an interface associated with a name. Setting the address to 0 restores the default behaviour of querying the contract at `addr()` for interface support."
      },
      "setName(bytes32,string)": {
        "notice": "Sets the name associated with an ENS node, for reverse records. May only be called by the owner of that node in the ENS registry."
      },
      "setPubkey(bytes32,bytes32,bytes32)": {
        "notice": "Sets the SECP256k1 public key associated with an ENS node."
      },
      "setText(bytes32,string,string)": {
        "notice": "Sets the text data associated with an ENS node and key. May only be called by the owner of that node in the ENS registry."
      },
      "setZonehash(bytes32,bytes)": {
        "notice": "setZonehash sets the hash for the zone. May only be called by the owner of that node in the ENS registry."
      },
      "text(bytes32,string)": {
        "notice": "Returns the text data associated with an ENS node and key."
      },
      "zonehash(bytes32)": {
        "notice": "zonehash obtains the hash for the zone."
      }
    },
    "notice": "A simple resolver anyone can use; only allows the owner of a node to set its address.",
    "version": 1
  },
  "storageLayout": {
    "storage": [
      {
        "astId": 15956,
        "contract": "contracts/resolvers/PublicResolver.sol:PublicResolver",
        "label": "recordVersions",
        "offset": 0,
        "slot": "0",
        "type": "t_mapping(t_bytes32,t_uint64)"
      },
      {
        "astId": 16050,
        "contract": "contracts/resolvers/PublicResolver.sol:PublicResolver",
        "label": "versionable_abis",
        "offset": 0,
        "slot": "1",
        "type": "t_mapping(t_uint64,t_mapping(t_bytes32,t_mapping(t_uint256,t_bytes_storage)))"
      },
      {
        "astId": 16204,
        "contract": "contracts/resolvers/PublicResolver.sol:PublicResolver",
        "label": "versionable_addresses",
        "offset": 0,
        "slot": "2",
        "type": "t_mapping(t_uint64,t_mapping(t_bytes32,t_mapping(t_uint256,t_bytes_storage)))"
      },
      {
        "astId": 16395,
        "contract": "contracts/resolvers/PublicResolver.sol:PublicResolver",
        "label": "versionable_hashes",
        "offset": 0,
        "slot": "3",
        "type": "t_mapping(t_uint64,t_mapping(t_bytes32,t_bytes_storage))"
      },
      {
        "astId": 16485,
        "contract": "contracts/resolvers/PublicResolver.sol:PublicResolver",
        "label": "versionable_zonehashes",
        "offset": 0,
        "slot": "4",
        "type": "t_mapping(t_uint64,t_mapping(t_bytes32,t_bytes_storage))"
      },
      {
        "astId": 16495,
        "contract": "contracts/resolvers/PublicResolver.sol:PublicResolver",
        "label": "versionable_records",
        "offset": 0,
        "slot": "5",
        "type": "t_mapping(t_uint64,t_mapping(t_bytes32,t_mapping(t_bytes32,t_mapping(t_uint16,t_bytes_storage))))"
      },
      {
        "astId": 16503,
        "contract": "contracts/resolvers/PublicResolver.sol:PublicResolver",
        "label": "versionable_nameEntriesCount",
        "offset": 0,
        "slot": "6",
        "type": "t_mapping(t_uint64,t_mapping(t_bytes32,t_mapping(t_bytes32,t_uint16)))"
      },
      {
        "astId": 17241,
        "contract": "contracts/resolvers/PublicResolver.sol:PublicResolver",
        "label": "versionable_interfaces",
        "offset": 0,
        "slot": "7",
        "type": "t_mapping(t_uint64,t_mapping(t_bytes32,t_mapping(t_bytes4,t_address)))"
      },
      {
        "astId": 17433,
        "contract": "contracts/resolvers/PublicResolver.sol:PublicResolver",
        "label": "versionable_names",
        "offset": 0,
        "slot": "8",
        "type": "t_mapping(t_uint64,t_mapping(t_bytes32,t_string_storage))"
      },
      {
        "astId": 17520,
        "contract": "contracts/resolvers/PublicResolver.sol:PublicResolver",
        "label": "versionable_pubkeys",
        "offset": 0,
        "slot": "9",
        "type": "t_mapping(t_uint64,t_mapping(t_bytes32,t_struct(PublicKey)17513_storage))"
      },
      {
        "astId": 17623,
        "contract": "contracts/resolvers/PublicResolver.sol:PublicResolver",
        "label": "versionable_texts",
        "offset": 0,
        "slot": "10",
        "type": "t_mapping(t_uint64,t_mapping(t_bytes32,t_mapping(t_string_memory_ptr,t_string_storage)))"
      },
      {
        "astId": 15522,
        "contract": "contracts/resolvers/PublicResolver.sol:PublicResolver",
        "label": "_operatorApprovals",
        "offset": 0,
        "slot": "11",
        "type": "t_mapping(t_address,t_mapping(t_address,t_bool))"
      },
      {
        "astId": 15531,
        "contract": "contracts/resolvers/PublicResolver.sol:PublicResolver",
        "label": "_tokenApprovals",
        "offset": 0,
        "slot": "12",
        "type": "t_mapping(t_address,t_mapping(t_bytes32,t_mapping(t_address,t_bool)))"
      }
    ],
    "types": {
      "t_address": {
        "encoding": "inplace",
        "label": "address",
        "numberOfBytes": "20"
      },
      "t_bool": {
        "encoding": "inplace",
        "label": "bool",
        "numberOfBytes": "1"
      },
      "t_bytes32": {
        "encoding": "inplace",
        "label": "bytes32",
        "numberOfBytes": "32"
      },
      "t_bytes4": {
        "encoding": "inplace",
        "label": "bytes4",
        "numberOfBytes": "4"
      },
      "t_bytes_storage": {
        "encoding": "bytes",
        "label": "bytes",
        "numberOfBytes": "32"
      },
      "t_mapping(t_address,t_bool)": {
        "encoding": "mapping",
        "key": "t_address",
        "label": "mapping(address => bool)",
        "numberOfBytes": "32",
        "value": "t_bool"
      },
      "t_mapping(t_address,t_mapping(t_address,t_bool))": {
        "encoding": "mapping",
        "key": "t_address",
        "label": "mapping(address => mapping(address => bool))",
        "numberOfBytes": "32",
        "value": "t_mapping(t_address,t_bool)"
      },
      "t_mapping(t_address,t_mapping(t_bytes32,t_mapping(t_address,t_bool)))": {
        "encoding": "mapping",
        "key": "t_address",
        "label": "mapping(address => mapping(bytes32 => mapping(address => bool)))",
        "numberOfBytes": "32",
        "value": "t_mapping(t_bytes32,t_mapping(t_address,t_bool))"
      },
      "t_mapping(t_bytes32,t_bytes_storage)": {
        "encoding": "mapping",
        "key": "t_bytes32",
        "label": "mapping(bytes32 => bytes)",
        "numberOfBytes": "32",
        "value": "t_bytes_storage"
      },
      "t_mapping(t_bytes32,t_mapping(t_address,t_bool))": {
        "encoding": "mapping",
        "key": "t_bytes32",
        "label": "mapping(bytes32 => mapping(address => bool))",
        "numberOfBytes": "32",
        "value": "t_mapping(t_address,t_bool)"
      },
      "t_mapping(t_bytes32,t_mapping(t_bytes32,t_mapping(t_uint16,t_bytes_storage)))": {
        "encoding": "mapping",
        "key": "t_bytes32",
        "label": "mapping(bytes32 => mapping(bytes32 => mapping(uint16 => bytes)))",
        "numberOfBytes": "32",
        "value": "t_mapping(t_bytes32,t_mapping(t_uint16,t_bytes_storage))"
      },
      "t_mapping(t_bytes32,t_mapping(t_bytes32,t_uint16))": {
        "encoding": "mapping",
        "key": "t_bytes32",
        "label": "mapping(bytes32 => mapping(bytes32 => uint16))",
        "numberOfBytes": "32",
        "value": "t_mapping(t_bytes32,t_uint16)"
      },
      "t_mapping(t_bytes32,t_mapping(t_bytes4,t_address))": {
        "encoding": "mapping",
        "key": "t_bytes32",
        "label": "mapping(bytes32 => mapping(bytes4 => address))",
        "numberOfBytes": "32",
        "value": "t_mapping(t_bytes4,t_address)"
      },
      "t_mapping(t_bytes32,t_mapping(t_string_memory_ptr,t_string_storage))": {
        "encoding": "mapping",
        "key": "t_bytes32",
        "label": "mapping(bytes32 => mapping(string => string))",
        "numberOfBytes": "32",
        "value": "t_mapping(t_string_memory_ptr,t_string_storage)"
      },
      "t_mapping(t_bytes32,t_mapping(t_uint16,t_bytes_storage))": {
        "encoding": "mapping",
        "key": "t_bytes32",
        "label": "mapping(bytes32 => mapping(uint16 => bytes))",
        "numberOfBytes": "32",
        "value": "t_mapping(t_uint16,t_bytes_storage)"
      },
      "t_mapping(t_bytes32,t_mapping(t_uint256,t_bytes_storage))": {
        "encoding": "mapping",
        "key": "t_bytes32",
        "label": "mapping(bytes32 => mapping(uint256 => bytes))",
        "numberOfBytes": "32",
        "value": "t_mapping(t_uint256,t_bytes_storage)"
      },
      "t_mapping(t_bytes32,t_string_storage)": {
        "encoding": "mapping",
        "key": "t_bytes32",
        "label": "mapping(bytes32 => string)",
        "numberOfBytes": "32",
        "value": "t_string_storage"
      },
      "t_mapping(t_bytes32,t_struct(PublicKey)17513_storage)": {
        "encoding": "mapping",
        "key": "t_bytes32",
        "label": "mapping(bytes32 => struct PubkeyResolver.PublicKey)",
        "numberOfBytes": "32",
        "value": "t_struct(PublicKey)17513_storage"
      },
      "t_mapping(t_bytes32,t_uint16)": {
        "encoding": "mapping",
        "key": "t_bytes32",
        "label": "mapping(bytes32 => uint16)",
        "numberOfBytes": "32",
        "value": "t_uint16"
      },
      "t_mapping(t_bytes32,t_uint64)": {
        "encoding": "mapping",
        "key": "t_bytes32",
        "label": "mapping(bytes32 => uint64)",
        "numberOfBytes": "32",
        "value": "t_uint64"
      },
      "t_mapping(t_bytes4,t_address)": {
        "encoding": "mapping",
        "key": "t_bytes4",
        "label": "mapping(bytes4 => address)",
        "numberOfBytes": "32",
        "value": "t_address"
      },
      "t_mapping(t_string_memory_ptr,t_string_storage)": {
        "encoding": "mapping",
        "key": "t_string_memory_ptr",
        "label": "mapping(string => string)",
        "numberOfBytes": "32",
        "value": "t_string_storage"
      },
      "t_mapping(t_uint16,t_bytes_storage)": {
        "encoding": "mapping",
        "key": "t_uint16",
        "label": "mapping(uint16 => bytes)",
        "numberOfBytes": "32",
        "value": "t_bytes_storage"
      },
      "t_mapping(t_uint256,t_bytes_storage)": {
        "encoding": "mapping",
        "key": "t_uint256",
        "label": "mapping(uint256 => bytes)",
        "numberOfBytes": "32",
        "value": "t_bytes_storage"
      },
      "t_mapping(t_uint64,t_mapping(t_bytes32,t_bytes_storage))": {
        "encoding": "mapping",
        "key": "t_uint64",
        "label": "mapping(uint64 => mapping(bytes32 => bytes))",
        "numberOfBytes": "32",
        "value": "t_mapping(t_bytes32,t_bytes_storage)"
      },
      "t_mapping(t_uint64,t_mapping(t_bytes32,t_mapping(t_bytes32,t_mapping(t_uint16,t_bytes_storage))))": {
        "encoding": "mapping",
        "key": "t_uint64",
        "label": "mapping(uint64 => mapping(bytes32 => mapping(bytes32 => mapping(uint16 => bytes))))",
        "numberOfBytes": "32",
        "value": "t_mapping(t_bytes32,t_mapping(t_bytes32,t_mapping(t_uint16,t_bytes_storage)))"
      },
      "t_mapping(t_uint64,t_mapping(t_bytes32,t_mapping(t_bytes32,t_uint16)))": {
        "encoding": "mapping",
        "key": "t_uint64",
        "label": "mapping(uint64 => mapping(bytes32 => mapping(bytes32 => uint16)))",
        "numberOfBytes": "32",
        "value": "t_mapping(t_bytes32,t_mapping(t_bytes32,t_uint16))"
      },
      "t_mapping(t_uint64,t_mapping(t_bytes32,t_mapping(t_bytes4,t_address)))": {
        "encoding": "mapping",
        "key": "t_uint64",
        "label": "mapping(uint64 => mapping(bytes32 => mapping(bytes4 => address)))",
        "numberOfBytes": "32",
        "value": "t_mapping(t_bytes32,t_mapping(t_bytes4,t_address))"
      },
      "t_mapping(t_uint64,t_mapping(t_bytes32,t_mapping(t_string_memory_ptr,t_string_storage)))": {
        "encoding": "mapping",
        "key": "t_uint64",
        "label": "mapping(uint64 => mapping(bytes32 => mapping(string => string)))",
        "numberOfBytes": "32",
        "value": "t_mapping(t_bytes32,t_mapping(t_string_memory_ptr,t_string_storage))"
      },
      "t_mapping(t_uint64,t_mapping(t_bytes32,t_mapping(t_uint256,t_bytes_storage)))": {
        "encoding": "mapping",
        "key": "t_uint64",
        "label": "mapping(uint64 => mapping(bytes32 => mapping(uint256 => bytes)))",
        "numberOfBytes": "32",
        "value": "t_mapping(t_bytes32,t_mapping(t_uint256,t_bytes_storage))"
      },
      "t_mapping(t_uint64,t_mapping(t_bytes32,t_string_storage))": {
        "encoding": "mapping",
        "key": "t_uint64",
        "label": "mapping(uint64 => mapping(bytes32 => string))",
        "numberOfBytes": "32",
        "value": "t_mapping(t_bytes32,t_string_storage)"
      },
      "t_mapping(t_uint64,t_mapping(t_bytes32,t_struct(PublicKey)17513_storage))": {
        "encoding": "mapping",
        "key": "t_uint64",
        "label": "mapping(uint64 => mapping(bytes32 => struct PubkeyResolver.PublicKey))",
        "numberOfBytes": "32",
        "value": "t_mapping(t_bytes32,t_struct(PublicKey)17513_storage)"
      },
      "t_string_memory_ptr": {
        "encoding": "bytes",
        "label": "string",
        "numberOfBytes": "32"
      },
      "t_string_storage": {
        "encoding": "bytes",
        "label": "string",
        "numberOfBytes": "32"
      },
      "t_struct(PublicKey)17513_storage": {
        "encoding": "inplace",
        "label": "struct PubkeyResolver.PublicKey",
        "members": [
          {
            "astId": 17510,
            "contract": "contracts/resolvers/PublicResolver.sol:PublicResolver",
            "label": "x",
            "offset": 0,
            "slot": "0",
            "type": "t_bytes32"
          },
          {
            "astId": 17512,
            "contract": "contracts/resolvers/PublicResolver.sol:PublicResolver",
            "label": "y",
            "offset": 0,
            "slot": "1",
            "type": "t_bytes32"
          }
        ],
        "numberOfBytes": "64"
      },
      "t_uint16": {
        "encoding": "inplace",
        "label": "uint16",
        "numberOfBytes": "2"
      },
      "t_uint256": {
        "encoding": "inplace",
        "label": "uint256",
        "numberOfBytes": "32"
      },
      "t_uint64": {
        "encoding": "inplace",
        "label": "uint64",
        "numberOfBytes": "8"
      }
    }
  }
}